:100000000C942A000C9447000C9447000C94470071
:100010000C9447000C9447000C9447000C94470044
:100020000C9447000C9447000C9447000C94790101
:100030000C9447000C9447000C9447000C94470024
:100040000C9447000C9447000C9447000C94470014
:100050000C94470011241FBECFE5D8E0DEBFCDBF12
:1000600010E0A0E6B0E0E0EDF4E002C005900D92F3
:10007000AC36B107D9F720E0ACE6B0E001C01D9284
:10008000AB39B207E1F70E948C000C9466020C9425
:1000900000009091600089E8989F812D112462E012
:1000A0008295869587700E94410108959091600025
:1000B0008DEC989F812D11248695869586959BEAD7
:1000C000899F912D112496959695292F220F920F95
:1000D000990F61E0891B0E944101089580916000A1
:1000E0009DEC899F912D1124969596959695990F43
:1000F000292F220F220F920F60E0891B0E944101DD
:10010000809160008F5F8D3319F0809360000895B7
:1001100081E0809360000895CF93DF931F92CDB765
:10012000DEB7AE014F5F5F4F61E080E30E94D90010
:10013000AE014F5F5F4F61E083E30E94D900AE01E3
:100140004F5F5F4F61E089E30E94D9004EE650E0C7
:10015000BE016F5F7F4F8EEB90E00E94A30189810B
:100160000E940F0246E550E0BE016F5F7F4F8CE6B4
:1001700097E00E94A30189810E940F0249E450E0A8
:10018000BE016F5F7F4F84E79CE20E94A3018981DB
:100190000E940F0260E080E00E94410161E080E087
:1001A0000E94410162E080E00E9441010E9434020D
:1001B000FDCF982F90539A3008F05BC0633008F061
:1001C0005AC04115510509F458C070916C007F3038
:1001D00009F455C0A72FB0E070FF0EC090E09F5FFC
:1001E000E92FF0E09D01092E02C0359527950A946C
:1001F000E2F720FDF4CF03C0E0E0F0E090E0A1E002
:10020000B0E09D010E2E02C0220F331F0A94E2F7C8
:10021000272B20936C00A82FB0E011962C911197FA
:100220002FEF11962C93623071F4DF01AA0FBB1FE0
:10023000A359BF4FAC91B0E012962C9112972FEFBB
:1002400012962C930CC0DF01AA0FBB1FA359BF4FFE
:10025000AC91B0E012962C91129712961C92EE0F70
:10026000FF1FE359FF4F80836183FA01908380E091
:10027000089581E0089581E0089581E0089582E085
:1002800008958A3080F5643080F570E0FB01EE0F50
:10029000FF1FE359FF4FE081EE2349F1DB01AA0F75
:1002A000BB1FA359BF4F11969C91923079F4F0E097
:1002B00092819FEF92839281A82FB0E0AF59BF4FF8
:1002C0008C9180958923828380E00895F0E092816B
:1002D00012829281A82FB0E0AF59BF4F8C91892B29
:1002E000828380E0089581E0089581E0089584E0AC
:1002F00008951F920F920FB60F9211242F933F93E0
:100300008F939F93EF93FF938EEB82BF81E0809357
:100310007500ECE7F0E02FE930E0808191810097F3
:1003200019F00197918380833796E217F307A9F7B5
:10033000FF91EF919F918F913F912F910F900FBE61
:100340000F901F901895CF93DF938530910508F497
:100350005CC06115710509F45AC04115510509F4D5
:1003600058C020917600211110C08B9AC39823B7F2
:10037000236823BF2EEB22BF29B7216029BF7894C1
:10038000209177002F6120937700D0917600209103
:100390007700D21709F43FC0AD2FB0E0D0FF0EC0F8
:1003A000C0E0CF5FEC2FF0E09D010C2E02C0359530
:1003B00027950A94E2F720FDF4CF03C0E0E0F0E0D7
:1003C000C0E0A1E0B0E09D010E2E02C0220F331F5D
:1003D0000A94E2F72D2B209376009F01220F331F02
:1003E000220F331F220F331FD901AE1BBF0BFD019C
:1003F000E858FF4F5183408393838283958384839E
:100400001682FB01C08380E007C081E005C081E067
:1004100003C081E001C082E0DF91CF910895853073
:10042000F8F490E0FC01EE0FFF1FEE0FFF1FEE0F40
:10043000FF1FE81BF90BE858FF4F22813381232B64
:1004400089F0FC01EE0FFF1FEE0FFF1FEE0FFF1FE5
:10045000E81BF90BE858FF4F81E0868380E00895A0
:1004600081E0089584E00895EF92FF920F931F9327
:10047000CF93DF930EE710E0C8E7D0E00F2EFBE943
:10048000EF2EF0E0FF2EF02DF8018081813079F41D
:1004900080917500813059F48C819D81892B39F4CC
:1004A0008A819B819D838C83E881F9810995095F0D
:1004B0001F4F2796CE15DF0539F710927500DF9193
:1004C000CF911F910F91FF90EF900895F894FFCF77
:0C04D000013F065B4F66ED7D07FF6F00EB
:00000001FF
